:0400000067EF0BF0AB
:1000080000C01EF001C01DF002C01CF003C01BF0B0
:1000180004C01AF005C019F008C018F009C017F09C
:100028000AC016F00BC015F0E1CF27F0E2CF28F098
:10003800E9CF25F0EACF26F0F3CF23F0F4CF24F070
:10004800F5CF22F0F8CF1FF0F7CF20F0F6CF21F050
:10005800A1AA03D0A19A28EC0AF022C0F5FF1FC07C
:10006800F8FF20C0F7FF21C0F6FF23C0F3FF24C02C
:10007800F4FF1EC000F01DC001F01CC002F01BC040
:1000880003F01AC004F019C005F018C008F017C032
:1000980009F016C00AF015C00BF025C0E9FF26C00C
:0C00A800EAFF27C0E1FF28C0E2FF1100C2
:1000B4001E0E716E100E486E040E496E48C0E1FFAC
:1000C40049C0E2FFE69E48C0E1FF49C0E2FFE69C6A
:1000D400040E4824E16E000E4920E26EE68C180EF0
:1000E400436E040E446E43C0E1FF44C0E2FFE69E4B
:1000F40043C0E1FF44C0E2FFE69C040E4324E16EEA
:10010400000E4420E26EE68C020E4824E16E000EDE
:100114004920E26E63C0E6FF64C0E6FF010E482496
:10012400E16E000E4920E26E400EE66E48C0E9FF23
:1001340049C0EAFFEECF00F048C0E1FF49C0E2FF4A
:10014400400E0014E66E48C0E9FF49C0EAFFEECF56
:1001540000F0880E001248C0E1FF49C0E2FF00C071
:10016400E6FF48C065F049C066F0040E4818006E0A
:0601740000C048F012007B
:10017A000B6A0A6A096A00500402F4CF09F0F3CF45
:10018A0008F001500502F4CF0BF0F3CF0AF000504B
:10019A000502F3500926F4500A22E86A0B2201509C
:1001AA000402F3500926F4500A22E86A0B2208C016
:1001BA0000F009C001F00AC002F00BC003F01200FF
:1001CA0004012251010A0FE120C401F01F0E011699
:1001DA000150000A08E12F8E2151030A03E1010EA2
:1001EA00456E01D0456A2251000AD8A48BD020C49A
:1001FA0001F01F0E01160150020AD8A483D024C4AC
:10020A0001F00F0E01160150000AD8B47BD02F8ED0
:10021A0024BF16D024C403F00F0E031603C000F047
:10022A00000E016E003600900136460E0024E96E7B
:10023A00000E0120EA6EEECF04F0EECF05F015D0E5
:10024A0024C403F00F0E031603C000F0000E016E63
:10025A00003600900136410E0024E96E000E01209E
:10026A00EA6EEECF04F0EECF05F02151030A07E162
:10027A0004C0E1FF05C0E2FF840EE66E43D024C449
:10028A0000F00F0E0016700E026E0F0E036E005075
:10029A000226D8B0032A02C0E9FF03C0EAFFFE0E15
:1002AA00EE14006EEECF01F0FF0E011602C0E1FF60
:1002BA0003C0E2FF00C0E6FF01C0E6FF24AF11D091
:1002CA0004C0E1FF05C0E2FFE66A040E0418006EEE
:1002DA0000C004F004C0E1FF05C0E2FF400EE66E74
:1002EA0011D004C0E1FF05C0E2FF880EE66E040EDD
:1002FA000418006E00C004F004C0E1FF05C0E2FF6C
:06030A00C80EE66E1200B1
:1003100020C401F01F0E01160150010A01E08DD02A
:1003200004012451000A01E088D02151060A3FE16E
:1003300034D04F50010A17E1680E006E190E016E9D
:10034000000E026E120E0026000E0122022200C0D4
:100350002CF001C02DF002C02EF0090E306E000E00
:10036000316EC00E2F6E23D04F50010A12E1910E54
:10037000006E190E016E000E026E00C02CF001C05E
:100380002DF002C02EF0210E306E000E316EC00E28
:100390002F6E0DD0800E2F6E0AD004012351210A3A
:1003A000C8E02351220AE0E02351230AF3E020C4ED
:1003B00001F0600E0116050E006E005004E00132DF
:1003C000019EFF0FFBD70150010A01E036D022D079
:1003D00034D033D05E0E2C6E000E2D6E010E306EBA
:1003E000000E316EC10E2F6E28D0800E2F6E23C4EA
:1003F0005EF023D05A0E2C6E000E2D6E010E306E64
:10040000000E316E810E2F6E18D0800E2F6E22C41A
:100410005AF013D004012151010ADAE02151090AEE
:10042000D8E02151020AD6E021510A0ADEE021512A
:0C043000030AE0E021510B0AE8E0120092
:10043C000401286B296B42D02F8E28814550010A6C
:10044C00D8B4288350D02F8E4ED02F8E24BF16D0E8
:10045C0024C403F00F0E031603C000F0000E016E4F
:10046C00003600900136460E0024E96E000E012085
:10047C00EA6EEECF04F0EECF05F015D024C403F0F5
:10048C000F0E031603C000F0000E016E0036009034
:10049C000136410E0024E96E000E0120EA6EEECF0B
:1004AC0004F0EECF05F004C0E9FF05C0EAFFEECF83
:1004BC0001F001A402D0010E286F15D020C401F068
:1004CC001F0E01160150000AB7E020C401F01F0EE8
:1004DC0001160150010AB7E020C401F01F0E0116ED
:1004EC000150020AB2E02FAE07D0280E2C6E040E7B
:0A04FC002D6E2F80020E306E1200EC
:100506002F8E716A00016A6B22C44FF04F50000AA9
:1005160003E1100E406E03D0200E406EC8DD1200BF
:1005260004012051800AD8A471D0C00E2F6E64D069
:10053600B20E006E190E016E000E026E00C02CF097
:1005460001C02DF002C02EF0120E306E000E316E7C
:100556005DD0030E006E000E016E22C404F0000E84
:10056600056E08DE3C0E0024E96E000E0120EA6EE0
:10057600EECF2CF0EECF2DF0EECF2EF0020E2C2487
:10058600F66E000E2D20F76E000E2E20F86E090076
:10059600F5CF00F00900F5CF01F000C030F001C042
:1005A60031F034D022513F5C23E3030E006E000E7F
:1005B600016E22C404F0000E056EDCDD320E00244E
:1005C600E96E000E0120EA6EEECF2CF0EECF2DF094
:1005D600EECF2EF02CC0F6FF2DC0F7FF2EC0F8FF91
:1005E6000900F5CF00F000C030F0000E316E01D0EA
:1005F6002F6A0CD02F6A0AD02351010A99E02351A1
:0E060600020AA7E02351030ACDE0F4D7120048
:10061400000E315C02E1080E305C10E230C003F0E1
:1006240031C004F05F50000A03E1010E5F6E05D093
:100634005F50010A02E1020E5F6E04D0080E036EE1
:10064400000E046E41C0E1FF42C0E2FFE69241C0E9
:10065400E1FF42C0E2FFE69041C0E9FF42C0EAFF89
:10066400EECF00F041C0E1FF42C0E2FF04500010B1
:10067400E66E010E4124E16E000E4220E26E03C0DC
:10068400E6FF0350305C006E04503158016E00C028
:1006940030F001C031F0280E5B6E040E5C6E2FB09A
:1006A4002FD0035004102BE02CC0F6FF2DC0F7FF11
:1006B4002EC0F8FF0900F5CF00F05BC0E1FF5CC07D
:1006C400E2FF00C0E6FF5B4A5C2A010E2C24006EA8
:1006D400000E2D20016E000E2E20026E00C02CF0A4
:1006E40001C02DF002C02EF0010E035C006E000E5E
:1006F4000458016E00C003F001C004F0D2D724D026
:100704000350041021E02CC0E9FF2DC0EAFF5BC0B8
:10071400E1FF5CC0E2FFEECFE6FF5B4A5C2A010E1C
:100724002C24006E000E2D20016E00C02CF001C0A0
:100734002DF0010E035C006E000E0458016E00C023
:0A07440003F001C004F0DCD712003E
:10074E00010E00016725E96E000E6821EA6EEECFFC
:10075E0000F000C002F0000E6F5D02E102506E5D0F
:10076E0003E26EC002F00AD002506E5D006E000E03
:10077E006F59016E00C06EF001C06FF0036A025037
:10078E00035C1CE2280EE96E040EEA6E0350E926A5
:10079E00D8B0EA2AEECF00F06BC0E1FF6CC0E2FFEA
:1007AE0000C0E6FF010E6B25006E000E6C21016E7F
:1007BE0000C06BF001C06CF0032AE1D7000E006E92
:1007CE006F51005C02E16E51000828E2010E5224C6
:1007DE00E16E000E5320E26E080EE66E020E5224FB
:1007EE00E16E000E5320E26E280EE66E040EE66EEB
:1007FE0067C0E9FF68C0EAFFEECF00F000BC07D08B
:10080E0052C0E1FF53C0E2FFC80EE66E06D052C0E2
:10081E00E1FF53C0E2FF880EE66E19D0010E52249E
:10082E00E16E000E5320E26E080EE66E020E5224AA
:10083E00E16E000E5320E26E200EE66E040EE66EA2
:10084E0052C0E1FF53C0E2FF840EE66E6D9F1200B0
:10085E00680E3C6E190E3D6E000E3E6ECC0E326E64
:10086E00190E336E000E346EC40E356E190E366EC2
:10087E00000E376E3C0E386E190E396E000E3A6E43
:02088E00120056
:0E089000160E6F6E9F0E6B6E3B0E696E1200A1
:10089E000001606B41C0E1FF42C0E2FFE66A040E58
:1008AE004118E16E42C0E2FF000EE21AE66A6DAF39
:0608BE0001D06D9F120045
:0808C4002B5201E023DD1200BC
:1008CC0020C401F0600E0116050E006E005004E00D
:1008DC000132019EFF0FFBD70150000A01E058D0F6
:1008EC0034D02F8E080E406E53D017DE51D005DE5B
:1008FC004FD04F0E2C6E000E2D6E2F80010E306ED1
:10090C002F8E46D095DD44D05ADC42D06A0E006E54
:10091C00000E016E24510026D8B0012A00C02CF024
:10092C0001C02DF02F80010E306E2F8E31D02F8E06
:10093C006A0EE16E000EE26E2451E126D8B0E22A76
:10094C0022C4E6FF25D024D023D004012151050A6E
:10095C00C8E02151060AC9E02151090AC8E0215119
:10096C00080AC7E02151000ACDE02151010ACCE070
:10097C002151030AC9E021510A0AC8E021510B0A8E
:10098C00D6E02151070ADFE021510C0ADDE0DCD76B
:02099C00120047
:10099E006D982FBE4AD000016DAF28D0020E606F49
:1009AE00010E4124E16E000E4220E26EE66A41C065
:1009BE00E1FF42C0E2FFC80EE66E010E5224E16E68
:1009CE00000E5320E26E080EE66E020E5224E16E09
:1009DE00000E5320E26E280EE66E040EE66E52C036
:1009EE00E1FF53C0E2FFC80EE66E1ED0010E522488
:1009FE00E16E000E5320E26E080EE66E020E5224D9
:100A0E00E16E000E5320E26E200EE66E040EE66ED0
:100A1E0052C0E1FF53C0E2FF8C0EE66E41C0E1FF13
:100A2E0042C0E2FF840EE66E80D000016DBF7DD025
:100A3E00040120AF52D03150275D02E13050265DC7
:100A4E0004E226C430F027C431F0DDDD010E0001D2
:100A5E00606F010E5224E16E000E5320E26E080EFE
:100A6E00E66E020E5224E16E000E5320E26E200E50
:100A7E00E66E040EE66E52C0E1FF53C0E2FF800E3A
:100A8E00E66E5D6A010E6725E16E000E6821E26E6C
:100A9E00080EE66E020E6725E16E000E6821E26E0C
:100AAE00200EE66E040EE66E67C0E1FF68C0E2FF40
:100ABE00840EE66E010E5D6E020E4124E16E000E96
:100ACE004220E26E280EE66E040EE66E41C0E1FF95
:100ADE0042C0E2FFC80EE66E28D00001020E606F23
:100AEE00010E4124E16E000E4220E26EE66A41C024
:100AFE00E1FF42C0E2FFC80EE66E010E5224E16E27
:100B0E00000E5320E26E080EE66E020E5224E16EC7
:100B1E00000E5320E26E280EE66E040EE66E52C0F4
:0C0B2E00E1FF53C0E2FFC80EE66E1200AB
:100B3A00040E4118006E00C041F04050080A0AE154
:100B4A0022C46EFF6E50000803E2100E406E02D0FF
:100B5A00040E406E00016051010A3AE1020E41247E
:100B6A00E16E000E4220E26E280EE66E040EE66E7C
:100B7A004CDD5F50020A07E141C0E1FF42C0E2FFDB
:100B8A00840EE66E24D0040E4118006E00C041F0B7
:100B9A0041C0E9FF42C0EAFFEECF00F000BC0CD032
:100BAA00040E4118006E00C041F041C0E1FF42C08E
:100BBA00E2FFC80EE66E0BD0040E4118006E00C0AC
:100BCA0041F041C0E1FF42C0E2FF880EE66E01D06B
:040BDA0061DE1200C6
:100BDE0000016051020A02E1B3DD1ED059DE5D5004
:100BEE00000A19E1010E5224E16E000E5320E26E4E
:100BFE00080EE66E020E5224E16E000E5320E26ED7
:100C0E00200EE66E040EE66E52C0E1FF53C0E2FF08
:0A0C1E008C0EE66E01D05D6A120034
:0A0C28006984EF0E68166D82120059
:100C320015DE0001656B666B506A516A6A6A686A02
:100C420026DE6D8C6E6A716A6D9C616B626B000E42
:100C5200625D02E1080E615D17E261C000F062C0F0
:100C620001F0003600900136003600900136000E89
:100C72000024E16E040E0120E26EE66AE66AE66A8C
:100C8200E66A614B622BE3D7160E706E68A603D03C
:100C9200F70E6816FBD72F6A6D6B6E6B6F6B6D98D4
:0E0CA200080E416E040E426E4F6A406A120048
:100CB00041C0E9FF42C0EAFFEECF00F000AE05D030
:100CC00041C0E1FF42C0E2FFE66A5F6A0001606B7B
:0E0CD000306A316A2F6AFADDF5DD61DE12004E
:100CDE006D92699468A403D0FB0E6816FBD71200C0
:100CEE0070A01CD067C0E9FF68C0EAFFEECF01F02C
:100CFE000150800A12E141C0E9FF42C0EAFFEECF87
:100D0E0001F0000E000A02E1840E011806E167C030
:100D1E00E1FF68C0E2FF8C0EE66E7090DF0E681683
:020D2E001200B1
:040D3000A19A120072
:100D340000018351000A12E082C000F0000E016E2F
:100D4400003600900136410E0024E96E000E0120A9
:100D5400EA6EEECF04F0EECF05F011D082C000F0C1
:100D6400000E016E003600900136460E0024E96E36
:100D7400000E0120EA6EEECF04F0EECF05F0020E75
:100D84000424E16E000E0520E26E84C0E6FF85C0F7
:100D9400E6FF010E0424E16E000E0520E26E86C01B
:100DA400E6FF04C0E9FF05C0EAFFEECF00F004C08F
:100DB400E1FF05C0E2FF400E0014E66E04C0E9FF47
:100DC40005C0EAFFEECF00F0880E001204C0E1FF78
:100DD40005C0E2FF00C0E6FF8351000A1BE082C0A9
:100DE40000F0000E016E003600900136410E002422
:100DF400026E000E0120036E02C0E9FF03C0EAFF89
:100E0400040EEE18006E02C0E1FF03C0E2FF00C052
:100E1400E6FF1AD082C000F0000E016E003600908A
:100E24000136460E0024026E000E0120036E02C03D
:100E3400E9FF03C0EAFF040EEE18006E02C0E1FFF2
:100E440003C0E2FF00C0E6FF04C000F005C001F0EB
:020E540012008A
:100E56004050000A09E16D6A696A17DD6DB602D075
:100E66006D86FCD7010E406E4050010A08E16DBA4E
:100E760006D0686A696A69806988020E406E68A44D
:100E860005D069A403D0FB0E681626DF6DA202D03A
:100E96004CDFD5D068A018D069A016D0C7DE040EE6
:100EA600406E200E0401026F040E036F080E016FE0
:100EB600000E0015006E00C000F48C0E0011006ECE
:100EC60000C000F4FE0E681668A805D069A803D015
:100ED600A8DEEF0E681668AC04D069AC02D0BF0E6F
:100EE600681668AA03D069AA01D0FEDE68A202D0FD
:100EF60069B26A6A040E405C02E217DFA0D069A6F6
:100F06009DD00001836B040E835DD8B097D068A690
:100F160091D06CCF69F0F70E6816780E6915016EE0
:100F26000150000AD8A485D0FD0E6915016E026A2B
:100F3600FF0E0216000E021802E1000E01186BE108
:100F46007E0E6915016E01C003F00332039E03C0D5
:100F560000F0000E016E003600900136003600905B
:100F66000136000E0024026E040E0120036E02C03C
:100F760067F003C068F002C052F003C053F0040EDD
:100F86005218006E00C052F002C0E9FF03C0EAFF2B
:100F9600EECF00F000C001F03C0E01160132019EBA
:100FA6000132019E01500D0A34E1020E6725E96EF9
:100FB600000E6821EA6EEECF01F0EECF02F002508D
:100FC600040A02E1280E011822E1020E6725E16EED
:100FD600000E6821E26E200EE66E040EE66E826B4F
:100FE600080E825D14E2200EE16E040EE26E82515E
:100FF600E126D8B0E22A280EE96E040EEA6E825186
:10100600E926D8B0EA2AEECFE6FF822BE9D74DDEF5
:1010160001D0E2DD0DD0FD0E6915016E026AFF0EEC
:101026000216000E021802E1040E011801E182DD2B
:1010360000D001D003D00001832B65D776DE1200E5
:0A104600D08EA28AA08AF28E12005A
:10105000B20E006E190E016E000E026E0E0E00240E
:10106000F66E000E0120F76E000E0220F86E0900E9
:10107000F5CF03F003C004F00F0E0024F66E000E4F
:101080000120F76E000E0220F86E0900F5CF01F086
:101090000150035C12E2B20E006E190E016E000EDA
:1010A000026E0F0E0024F66E000E0120F76E000E89
:1010B0000220F86E0900F5CF04F0B20E006E190E92
:1010C000016E000E026E100E0024F66E000E01205E
:1010D000F76E000E0220F86E0900F5CF01F0015006
:1010E000045C12E2B20E006E190E016E000E026E6A
:1010F000100E0024F66E000E0120F76E000E022086
:0E110000F86E0900F5CF04F004C000F01200F4
:10110E00000E0001831902E1000E821902E1016A4C
:10111E000AD082C0E9FF83C0EAFFEECF00F0000ED6
:0C112E0000BE010E016E01C000F01200B6
:10113A000001856B866B876B020E8225F66E000EA8
:10114A008321F76E000E8421F86E0900F5CF05F0B1
:10115A00030E8225F66E000E8321F76E000E84219F
:10116A00F86E0900F5CF00F000C003F0000E046E1F
:10117A0003C001F0006A05500024066E000E01202B
:10118A00076E82C008F083C009F084C00AF0010E1D
:10119A000824F66E000E0920F76E000E0A20F86E7B
:1011AA000900F5CF01F00150020A1BE1060E0824DE
:1011BA00F66E000E0920F76E000E0A20F86E09007E
:1011CA00F5CF01F00150855D0CE2060E0824F66E9B
:1011DA00000E0920F76E000E0A20F86E0900F5CFFE
:1011EA0085F0010E0824F66E000E0920F76E000E37
:1011FA000A20F86E0900F5CF01F00150040A1BE13C
:10120A00080E0824F66E000E0920F76E000E0A205A
:10121A00F86E0900F5CF01F00150855D0CE2080E69
:10122A000824F66E000E0920F76E000E0A20F86EEA
:10123A000900F5CF85F008C0F6FF09C0F7FF0AC01C
:10124A00F8FF0900F5CF00F000508625016E000E68
:10125A008721026E01C086F002C087F00750025C47
:10126A0002E10650015C01E30FD008C0F6FF09C095
:10127A00F7FF0AC0F8FF0900F5CF00F00050082672
:0E128A00000E09220A2283D785C000F0120050
:10129800020E0C6EEF0E0D6E0D2EFED70C2EFCD727
:0612A8000000000012002E
:1012AE004050000A0BE16D6A696A48EC04F0C4DE36
:0E12BE006DB602D06D86FCD7010E406E120098
:1012CC00200E405C03E36DB201D002D0006A4ED018
:1012DC0050C082F051C083F014DF005246E17EC052
:1012EC0082F0010E836F7BC084F07CC085F07DC0E2
:1012FC0086F01ADD00C050F001C051F0566A576AF2
:10130C00586A596A50C082F051C083F0FADE00521C
:10131C0016E0200E405C03E36DB201D002D0006AEF
:10132C0025D0010E016E0150000A01E18EDD5650F0
:10133C0057105810591002E0006A18D0E3D750C06B
:10134C007FF051C080F0000E511802E1000E5018D1
:10135C000AE0010E00017F25E96E000E8021EA6E85
:0E136C00EECF00F003D0006A01D0006A12003C
:10137A006ADE00C07BF0680E0001826F190E836F6F
:10138A00000E846FD5DE00C07CF07B51005C03E266
:0C139A007BC000F002D07CC000F012000C
:1013A6000001816B200E405C03E36DB201D002D0D8
:1013B600006A2DD065C082F066C083F0A5DE0052BB
:1013C60025E165C07FF066C080F0000E661902E177
:1013D600000E65190AE0010E7F25E96E000E8021D8
:1013E600EA6EEECF00F000C081F07EC082F0836B23
:1013F6007BC084F07CC085F07DC086F098DC00C0A0
:1014060065F001C066F081C000F001D0006A1200EC
:10141600B1DF00C03FF0010E2B6E74C063F075C0E3
:1014260064F076C054F077C055F000DC010E016E12
:0A1436000150010A01E138DF120045
:101440000900F5CFE6FF0006FBE10106F9E1120015
:101450004050010A07E16DBA05D0686A6980698861
:10146000020E406E68A405D069A403D0FB0E681676
:1014700036DC6DA202D05CDCDBD068A019D069A09C
:1014800017D019EC06F0040E406E200E0401026F16
:10149000040E036F080E016F000E0015006E00C0F1
:1014A00000F48C0E0011006E00C000F4FE0E6816F1
:1014B00068A806D069A804D014EC06F0EF0E6816F0
:1014C00068AC04D069AC02D0BF0E681668AA03D01D
:1014D00069AA01D00CDC68A202D069B26A6A040E63
:1014E000405C02E225DCA4D069A6A0D00001896B93
:1014F000040E895DD8B09AD068A694D06CCF69F0FC
:10150000F70E6816780E6915016E0150000AD8A40E
:1015100088D0FD0E6915016E026AFF0E0216000EDC
:10152000021802E1000E01186DE17E0E6915016ED0
:1015300001C003F00332039E03C000F0000E016EF1
:10154000003600900136003600900136000E00246F
:10155000026E040E0120036E02C067F003C068F043
:1015600002C052F003C053F0040E5218006E00C0C7
:1015700052F002C0E9FF03C0EAFFEECF00F000C066
:1015800001F03C0E01160132019E0132019E015014
:101590000D0A35E1020E6725E96E000E6821EA6E3C
:1015A000EECF01F0EECF02F00250040A02E1280E65
:1015B000011822E1020E6725E16E000E6821E26E3D
:1015C000200EE66E040EE66E886B080E885D14E24F
:1015D000200EE16E040EE26E8851E126D8B0E22AB8
:1015E000280EE96E040EEA6E8851E926D8B0EA2A80
:1015F000EECFE6FF882BE9D758EC06F002D0EFECEF
:1016000005F00ED0FD0E6915016E026AFF0E02167E
:10161000000E021802E1040E011802E19DEC05F033
:1016200000D001D003D00001892B62D798EC06F0DE
:021630001200A6
:1016320074C07BF075C07CF076C07DF0010E0001B5
:061642007E6F43DE120082
:1016480063C07BF064C07CF0400E00017D6F010E2A
:061658007E6FA5DE12000A
:10165E0000017A6B76C001F0010E006E015004E0BD
:10166E0000360090FF0FFBD700C079F074C0E9FF81
:10167E0075C0EAFF0050EE14016E0152010ED8A49F
:10168E00000E006E7851001A18E07751000804E23F
:10169E00FCDDFBDD7707F9D774C0E9FF75C0EAFF03
:1016AE007951EE14016E0152010ED8A4000E006E97
:1016BE007851001A02E0FF0E7A6F7AC000F0120025
:1016CE00296A2A6A0E0EC16E070EB46E826A8B6A82
:1016DE0094929494836AFF0E8C6EF00E956E6F88C2
:1016EE006F84000E0001746F050E756F400E766FDD
:1016FE00050E776F89DEA19AA08AF28EF28C830E88
:10170E000001746F0F0E756F040E766F020E776FF9
:10171E00010E786F9DDF0052D8A44E804EA011D0DE
:10172E00830E746F0F0E756F040E766F020E776F49
:10173E00786B8EDF005205E0310E4A6E4E824E906F
:10174E0003D0300E4A6E4E92830E746F0F0E756F6D
:10175E00050E766F020E776F010E786F79DF0052ED
:10176E00D8A44E864EA611D0830E746F0F0E756FD1
:10177E00050E766F020E776F786B6ADF005205E00A
:10178E00310E4B6E4E844E9603D0300E4B6E4E94F1
:10179E00830E746F0F0E756F060E766F020E776FD7
:1017AE00010E786F55DF0052D8A44E8C4EAC11D07E
:1017BE00830E746F0F0E756F060E766F020E776FB7
:1017CE00786B46DF005205E0310E4C6E4E8E4E9C0D
:1017DE0003D0300E4C6E4E9E830E746F0F0E756FCF
:1017EE00070E766F020E776F010E786F31DF0052A3
:1017FE00D8A44E8A4EAA11D0830E746F0F0E756F39
:10180E00070E766F020E776F786B22DF005205E0BF
:10181E00310E4D6E4E884E9A03D0300E4D6E4E9850
:10182E004EB207D04EB405D04EBE03D04EB801D046
:10183E0033D0296A2A6A8B943B6A800E3B18006E5D
:10184E00800E040A005C1CE23B50010F006E016A20
:10185E00000E3BBEFF0E0122400E0024E16E050E6F
:10186E000120E26E4A0EE96E000EEA6E3B50E9264A
:10187E00000E3BBEFF0EEA22EECFE6FF3B2ADDD77F
:10188E00260E0501406F400E0001746F050E756F38
:10189E00050E766FC7DE0BD0294A2A2A2A50010A76
:1018AE0002E1F40E291803E18B84296A2A6AC5DE47
:1018BE000050000A3AE005010051420A36E101519A
:1018CE00400AD8B48C708CB003D0530E416F02D046
:1018DE00540E416F0251400AD8B48C728CB203D0B0
:1018EE00530E426F02D0540E426F0351400AD8B4C9
:1018FE008C748CB403D0530E436F02D0540E436FCE
:10190E000451400AD8B48C768CB603D0530E446F73
:10191E0002D0540E446F2A0E406F400E0001746FB9
:0E192E00050E756F050E766F7DDEE9D6FFD7CC
:10193C002C03530069006D0075006C00610074008D
:10194C0069006F006E005F005500530042005F009D
:0C195C0044007200690076006500720013
:101968000902290001010080320904000002030075
:10197800000009210101000122210007058103401F
:0919880000010705010340000104
:101991000600FF0901A10119012940150026FF00D8
:1019A100750895058102190129407508950791026D
:0119B100C075
:1019B2001201000200000008D80407000001010221
:0219C200000122
:0819C4000803530069006D00E7
:0419CC000403090403
:020000040030CA
:0E000000220E3F1EFF8381FF0FC00FE00F4056
:00000001FF
